S01E000070726F6A656374355F747269616C377365676D656E742E7372656335
S11300000C9434000C9449000C9449000C9449005D
S11300100C9449000C9449000C9449000C94490038
S11300200C9449000C9449000C9449000C94490028
S11300300C9449000C9449000C9449000C94490018
S11300400C9449000C9449000C9449000C94490008
S11300500C9449000C9449000C9449000C944900F8
S11300600C9449000C94490011241FBECFEFD8E032
S1130070DEBFCDBF11E0A0E0B1E0E6EFF1E002C0E9
S113008005900D92AC30B107D9F70E946B000C9427
S1130090F9000C940000FC01E050FF4F808188B906
S11300A08081829586958695837085B9089583B1FC
S11300B08370886F85B9089583B18370846F85B91F
S11300C0089583B183708C6E85B9089583B183706C
S11300D08C6D85B908958FEF84B987B915B8812CD3
S11300E0912CC0E9D1E00F2EF8EEAF2EF3E0BF2E35
S11300F0F02D0F2EF4E6CF2ED12CF02D0F2EFAE09A
S1130100EF2EF12CF02D02C0812C912CCE01B501E3
S11301100E94D1008C01CB010E944B000E9466001A
S11301208FE19EE40197F1F700C00000C801B60119
S11301300E94D1008C01CB010E944B000E946100FF
S11301408FE19EE40197F1F700C00000C801B701F8
S11301500E94D1008C01CB010E944B000E945C00E4
S11301608FE19EE40197F1F700C00000C8010E94EE
S11301704B000E9457008FE19EE40197F1F700C005
S113018000009FEF891A990A83E0881691040CF401
S1130190BDCF219709F0B8CF812C912CC8E7D0E0CE
S11301A0B5CF97FB072E16F4009407D077FD09D03E
S11301B00E94E50007FC05D03EF4909581959F4F81
S11301C00895709561957F4F0895AA1BBB1B51E15B
S11301D007C0AA1FBB1FA617B70710F0A61BB70BB3
S11301E0881F991F5A95A9F780959095BC01CD0158
S10901F00895F894FFCF0E
S10F01F63F065B4F666D7D077F6F800045
S9030000FC
