:100000000C9434000C9451000C9451000C94510049
:100010000C9451000C9451000C9451000C9451001C
:100020000C9451000C9451000C9451000C9451000C
:100030000C9451000C9451000C9451000C945100FC
:100040000C9451000C9451000C9451000C945100EC
:100050000C9451000C9451000C9451000C945100DC
:100060000C9451000C94510011241FBECFEFD8E026
:10007000DEBFCDBF11E0A0E0B1E0E4EDF0E002C0F2
:1000800005900D92AC30B107D9F721E0ACE0B1E0BA
:1000900001C01D92AC30B207E1F70E945F000C94E2
:1000A00068000C940000FC01E050FF4F808188B98B
:1000B0008081829586958695837085B908958FEFA6
:1000C00084B987B915B882E090E00E945300FFCF51
:0400D000F894FFCFD2
:0C00D4003F065B4F666D7D077F6F80006C
:00000001FF
