S01E000070726F6A656374355F747269616C377365676D656E742E7372656335
S11300000C9434000C9451000C9451000C94510045
S11300100C9451000C9451000C9451000C94510018
S11300200C9451000C9451000C9451000C94510008
S11300300C9451000C9451000C9451000C945100F8
S11300400C9451000C9451000C9451000C945100E8
S11300500C9451000C9451000C9451000C945100D8
S11300600C9451000C94510011241FBECFEFD8E022
S1130070DEBFCDBF11E0A0E0B1E0E4E5F1E002C0F5
S113008005900D92AC30B107D9F721E0ACE0B1E0B6
S113009001C01D92AC30B207E1F70E9473000C94CA
S11300A0A8000C940000FC01E050FF4F808188B947
S11300B08081829586958695837085B9089583B1EC
S11300C08370886F85B9089583B18370846F85B90F
S11300D0089583B183708C6E85B9089583B183705C
S11300E08C6D85B908958FEF84B987B915B881E00F
S11300F090E00E9453000E945F008FE39CE9019707
S1130100F1F700C0000082E090E00E9453000E94DA
S113011064008FE39CE90197F1F700C0000083E0DD
S113012090E00E9453000E9469008FE39CE90197CC
S1130130F1F700C0000084E090E00E9453000E94A8
S11301406E008FE39CE90197F1F700C00000CFCF68
S1070150F894FFCF4D
S10F01543F065B4F666D7D077F6F8000E7
S9030000FC
