S01E000070726F6A656374355F747269616C377365676D656E742E7372656335
S11300000C9434000C9449000C9449000C9449005D
S11300100C9449000C9449000C9449000C94490038
S11300200C9449000C9449000C9449000C94490028
S11300300C9449000C9449000C9449000C94490018
S11300400C9449000C9449000C9449000C94490008
S11300500C9449000C9449000C9449000C944900F8
S11300600C9449000C94490011241FBECFEFD8E032
S1130070DEBFCDBF11E0A0E0B1E0E0EEF1E002C0F0
S113008005900D92AC30B107D9F70E946B000C9427
S1130090EE000C940000FC01E050FF4F808188B911
S11300A08081829586958695837085B9089583B1FC
S11300B08370886F85B9089583B18370846F85B91F
S11300C0089583B183708C6E85B9089583B183706C
S11300D08C6D85B908958FEF84B987B915B81AB8AE
S11300E08BB9E1E8F0E08081876080830F2EF4E82B
S11300F0AF2EB12CF02D0F2EF8EECF2EF3E0DF2E25
S1130100F02D0F2EF4E6EF2EF12CF02D0AE010E086
S1130110F50180819181B6010E94C600EC01CB01FA
S11301200E944B000E9466008FE19EE40197F1F764
S113013000C00000CE01B7010E94C600EC01CB0153
S11301400E944B000E946100EFE1FEE43197F1F759
S113015000C00000CE01B8010E94C600EC01CB0132
S11301600E944B000E945C008FE19EE40197F1F72E
S113017000C00000CE010E944B000E945700EFE136
S1130180FEE43197F1F700C00000C2CF97FB072EC1
S113019016F4009407D077FD09D00E94DA0007FC1A
S11301A005D03EF4909581959F4F08957095619583
S11301B07F4F0895AA1BBB1B51E107C0AA1FBB1F99
S11301C0A617B70710F0A61BB70B881F991F5A95DF
S11301D0A9F780959095BC01CD010895F894FFCFBF
S10F01E03F065B4F666D7D077F6F80005B
S9030000FC
